:100000000A128A11A52E00308A000408840A820789
:10001000003456344934423452342E34203453346C
:1000200045344E3453344F345234003442347534F2
:100030007A347A346534723420344F34463446345A
:1000400020340034423475347A347A34653472346E
:0A00500020344F344E3420340034C5
:100D4A0083010A128A117A2F01300A128A11DA26CD
:100D5A000A128A110030F3000030F2000230F1006A
:100D6A005830F0000A128A114A270A128A1108001A
:100D7A00FA0010307A020318C32EC42ECC2E7A0839
:100D8A00803E0A128A11DA260A128A11D92E7A08A4
:100D9A00EC3EF9007908FA007A08C03E0A128A1174
:100DAA00DA260A128A11D92E0800F80083120313D0
:100DBA0006127808880086160030F3000030F20028
:100DCA000030F1003230F0000A128A114A270A1262
:100DDA008A118312031386120030F3000030F200E6
:100DEA000030F1003230F0000A128A114A270A1242
:100DFA008A110800F800831203130616780888007F
:100E0A0086160030F3000030F2000030F1000A309C
:100E1A00F0000A128A114A270A128A11831203134E
:100E2A0086120030F3000030F2000030F1000A3080
:100E3A00F0000A128A114A270A128A110800FA00D7
:100E4A00372F7A0884000A128A1103200A128A119B
:100E5A000A128A11FF260A128A110130F90079084A
:100E6A00FA07372F7A08031D3B2F492F7A08840087
:100E7A000A128A1103200A128A110038031D462F0A
:100E8A00472F262F492F492F08007308720471042F
:100E9A007004031D512F522F542F792F792F0130AF
:100EAA00F4000030F5000030F6000030F700740856
:100EBA00F0027508031C750F632F642FF102760880
:100ECA00031C760F692F6A2FF2027708031C770F2B
:100EDA006F2F702FF3027308720471047004031DDC
:100EEA00772F782F542F792F08000030831203139D
:100EFA00A3000030A2001330A1008830A000033004
:100F0A0083160313860088010730850006309F0088
:100F1A0001300A128A11DA260A128A1102300A12DA
:100F2A008A11DA260A128A1106300A128A11DA2678
:100F3A000A128A110C300A128A11DA260A128A1146
:100F4A0038300A128A11DA260A128A110A128A110A
:100F5A00A9260A128A1100300A128A11BD260A121B
:100F6A008A1101300A128A1124270A128A1183125D
:100F7A00031306138613F42FF42FC32F0618C62F54
:100F8A00C72FC32FC82F14300A128A11BD260A127E
:100F9A008A111A300A128A1124270A128A11831214
:100FAA00031386170030F3000730F200A130F10076
:100FBA002030F0000A128A114A270A128A11831273
:100FCA000313861314300A128A11BD260A128A11D3
:100FDA000E300A128A1124270A128A11F42F831258
:100FEA000313061CF92FFA2FC32FF42FF42FF42F13
:060FFA000A128A11002812
:02400E00323F3F
:00000001FF
